:030000000218984B
:0C189800787FE4F6D8FD75813D0218DF72
:0C17E2004300C00000004300BD17093B9D
:101E6900E4FEEEC3940874809480500FC297EF1378
:0B1E790092A3EFC313FFD2970E80E787
:011E8400223B
:101F2C00C29300C29700D29300121E69AF05121E15
:041F3C0069C29322C1
:101C3100E4FDC29300C29700D29300121E69E4FF33
:101C4100EFC39408748094805011C297EDC313FDC3
:101C510030A303430580D2970F80E5C29300C2975A
:0C1C610000D29700C2A300D2A300AF0580
:011C6D002254
:101A01009000BDE0FF75F00A84C454F0FEEF75F05C
:101A11000A84EE25F09000C0F09000BEE0FF75F062
:101A21000A84C454F0FEEF75F00A84EE25F09000AC
:101A3100C1F09000BFE0FF75F00A84C454F0FEEFDE
:0C1A410075F00A84EE25F09000C2F0223F
:101BF1009000C0E0FFC4540F75F00AA4FEEF540F2B
:101C01002E9000BDF09000C1E0FFC4540F75F00AA2
:101C1100A4FEEF540F2E9000BEF09000C2E0FFC46E
:101C2100540F75F00AA4FEEF540F2E9000BFF0225E
:101E2F00121A019000C0E0FD7F84121F2CA3E0FD69
:0D1E3F007F82121F2CA3E0FD7F80021F2C6C
:101E4C007F85121C319000C0EFF07F83121C31A3F0
:0D1E5C00EFF07F81121C31A3EFF0021BF1AB
:061F9E0000007F2ADFFEB7
:011FA400221A
:101E8500E4FEEEC3940874809480500DD290121F26
:091E95009EC290121F9E0E80E90E
:011E9E002221
:101A4D0075D90075F98D75E91C121E85D2DE3091A0
:101A5D000330DFFAC2DE20DF26AFF9EFFEADE9ED90
:101A6D0024E4FDEE3472FCE4120A4E7B967A43793F
:101A7D008B783C120943120A878E128F138007C28E
:0A1A8D00DFE4F512F513AE12AF13FB
:011A9700222C
:101B2800E4FDFCF5D9F5F9F5E9121E85D2DE309110
:101B38000330DFFAC2DE20DF22AFF9EFFEADE9EDB8
:101B4800FFAC06E4120A4E7B967A43798B783C12F6
:101B58000943120A87AC06AD078005C2DFE4FCFD25
:041B6800AE04AF0513
:011B6C002256
:101B6D003F065B4F666D7D077F6F777C395E7971C0
:101B7D000040761E7038375C733E783D6750376E87
:101B8D00BF86DBCFE6EDFD87FFEF460102040810AF
:101B9D00204080131211100F0E0D0C0B0A090807AF
:031BAD0006050426
:1017EE00010C004100A00A41009F004100550A0172
:1017FE000B006040005D10101110101110100C1035
:10180E001010101010100E101010101110100D10CE
:10181E001010101010101A101010101010100F10B1
:10182E0010101010101010101010101010101010AA
:10183E001010101010100209005D410056FF010833
:10184E000041005C0041005B0042009D0000420030
:10185E00570000410054004100590041005A004217
:04186E0000A1014D87
:0C1F7400E50CF4F58043A08053A01F2270
:0A1F8C00850B8043A0A053A01F2284
:101BB000E4F58043A0C053A01FE50A2508F582E4A0
:101BC0003509F583E0901B6D93F4F58043A0E05355
:101BD000A01FE508901B9893F58043A0C053A01F59
:101BE0000508C3E5089408748094804003E4F50870
:011BF00022D2
:101A980075B00FE5B0F4540F603690005CE004F0C8
:101AA800D394FF748094804002E4F020B006900044
:101AB8005B7407F020B10690005B7406F020B20654
:101AC80090005B7405F020B31090005B7404F02262
:0A1AD800E490005CF090005BF02247
:10165B007FFF7EFF75B00FE4F5C0E5B0F4540F606B
:10166B007C90005CE0C394FF748094805003E00492
:10167B00F020B002E4FE20B1027E0120B2027E0215
:10168B0020B3027E0375B0F075C0FF20B402E4FFF7
:10169B0020B5027F0120C2027F0220C4027F03EE2D
:1016AB00F460047D0180027D00EFF460047C018016
:1016BB00027C00EC5D601CEF25E025E024A0F582A8
:1016CB00E4341BF583E5822EF582E43583F583E460
:1016DB00938005E490005CF090005BF02290005B3F
:1016EB00E06032A3E0FF7E00D394FA7480948050C4
:1016FB0024C3EF946474809480500474FFF022C36D
:10170B00EF94C8EE6480948090005C500474FEF0FB
:0C171B002274FDF022E490005BF0A3F0CB
:01172700229F
:101F4000438E805389F0438904E4F58AF58CC28D71
:031F5000D28C220E
:101F0200438E4053890F758B50758DFBC28FD28ED5
:051F1200D2AFD2AB22AA
:03001B00021728A1
:10172800C0E0C0F0C083C082C0D075D000C000C087
:1017380005C006C0079000A0E0FF90009FE0D39F7F
:101748005007E50CF4F58080037580FF43A08053B3
:10175800A01F900055E0FF90009FE004F0C39F4059
:1017680002E4F0900054E004F0D3940A748094806A
:101778004055E4F0121BB0121F8C900059E004F0A1
:10178800A3E004F09000A2E004F070069000A1E04D
:1017980004F090009DE475F001120FF7FEC3E5F028
:1017A80094E8EE9403402090009DE4F0A3F0C28CEE
:1017B800AF8CEFFFAD8AED900057CFF0A3EFF07537
:1017C8008C00758A00D28CD007D006D005D000D006
:0A17D800D0D082D083D0F0D0E032F0
:041E9F00D2A07F0A44
:101EA300000000000000000000000000000000AE81
:061EB300071FEE70EB2298
:061F1700121CAB121EC1FA
:0F1F1D00D2A1121E9FC2A17F0A121EA3C2A02230
:0C1F8000C2A1121E9FD2A17F0A021EA364
:021CAB00AD0783
:101CAD00E4FCECC39408748094805024C2A07F0A95
:101CBD00121EA3ED30E704D2A18002C2A17F0A1249
:101CCD001EA3D2A0ED25E0FD7F0A121EA30C80D22B
:021CDD00C2A0A3
:011CDF0022E2
:101DEB00E4FCECC39408748094805017121E9FED92
:101DFB0025E0FD30A103430501C2A07F0A121EA3FB
:051E0B000C80DFAF05B3
:011E100022AF
:081EB900121F1D7F90121CABEB
:101EC100121E9FA2A1E433FDC2A07F0A121EA3AF7E
:011ED100050B
:011ED20022ED
:10000300C2A0EF24FF92A17F0A121EA3121E9FC259
:08001300A0D2A17F0A021EA386
:101CE0008F22121F1D7FA0121CAB121EC1AF221229
:101CF0001CAB121EC1AF261526EF6013120F38FF62
:101D0000121CAB121EC1740129F9E43AFA80E602F2
:021D10001F8032
:021C6E008F0DD8
:101C7000121F1D7FA0121CAB121EC1AF0D121F1729
:101C80007FA1121CAB121EC1121DEBEF120F7E15AD
:101C900011E511600E740129F9E43AFAE4FF12002B
:0B1CA0000380E57F01120003021F809B
:021D1200AB071D
:101D1400E4FD121EB9EB4440FF121F177F91121C01
:101D2400AB121EC1121DEBE4FF120003121DEBAD3A
:0B1D3400077F01120003121F80AF05A3
:011D3F002281
:101ED300AB07121EB97F40121CAB121EC1AF031217
:081EE3001CAB121EC1021F809E
:0E1F6600121EB9E4FF121CAB121EC1021F8036
:1019B0002353540D0A003131343531340D0A0000FF
:1019C000000000640000640000000000000000004F
:1019D0000000000000000000000000000000000007
:1019E00000000000000000000000000000000000F7
:1019F00000000000000000000000000000000000E7
:011A000000E5
:10002600E4900000F0A3F0A3F0A3F0A374FFF0A304
:1000360074FAF074FFA3F0A3F0E4A3F0A3F0A3F026
:10004600A3F0A3F0780D7C007D017BFF7A1979BFC0
:10005600FE7F04120F12E4900011F0A3F0A3F0A3A8
:10006600F0A3F078167C007D017BFF7A1979C3FE38
:100076007F04120F12781A7C007D017BFF7A1979B2
:10008600C77E007F08120F1278227C007D017BFF5D
:100096007A1979CF7E007F32120F12121E2F121F8D
:1000A60002121EEB121F40900059E0C3940A74809E
:1000B600948040F3E4F012165BD39000A2E094E83B
:1000C6009000A1E094034004E4F0A3F090005AE00D
:1000D600C39432748094805003020216E4F09000B8
:1000E60001E07003121E4C900001E064017016904E
:1000F600000CE06401700EF07B017A00790D752624
:1001060004FF121CE0900001E06405700B121B282E
:10011600900012EEF0A3EFF0900001E06403700B84
:10012600121AE2900014EEF0A3EFF0900001E064E2
:100136000470257F01121D12900017EFF0FCE412E7
:100146000A537B487AE179FA783F120943120A8703
:1001560090001CEEF0A3EFF0900001E06402702521
:100166007F03121D12900019EFF0FCE4120A537B74
:10017600487AE179FA783F120943120A87900020FB
:10018600EEF0A3EFF0900001E064067027900016F1
:10019600E0FF121ED3900016E0FCE4120A537B48DF
:1001A6007AE179FA783F120943120A8790001AEE2B
:1001B600F0A3EFF0900001E0640770439000A3E025
:1001C6006401703BF09000BCF078A47C007D017B5C
:1001D600FF7A1979B01211CFEF3395E04F70207581
:1001E60025FF7526197527B67B017A00792212122A
:1001F600487B017A007922121F53E4900022F09086
:100206000001E004F0D39407748094804002E4F087
:1002160090005CE0F4600302052190005BE0F9FDCC
:100226007C0064047065900000E004F0D3940774C9
:100236008094804002E4F0900000E06402704C90EC
:1002460000BDE090000DF09000BEE090000EF09032
:100256000002E0FAA3E0FBEA90000FF0A3EBF090B7
:100266000004E0FFA3E0A3CFF0A3EFF0900002E0CC
:10027600FFA3E0A3CFF0A3EFF0E4900008F0A3F013
:10028600900002F0A3F090000C04F0900000E064EF
:10029600016003020521ED64054C700C900008F026
:1002A600A3F0900002F0A3F0E964067034C3900056
:1002B60009E09404900008E094005025900002E0C4
:1002C600FEA3E0FF7C007D0A120F90900002EEF084
:1002D600A3EFF0900009E004F07006900008E00437
:1002E600F0E9FB7A00640A7039C3900009E09404CF
:1002F600900008E09400502A900002E0FEA3E0FF80
:100306007C007D0A120F90EF2401FFE43E9000026C
:10031600F0A3EFF0900009E004F07006900008E00A
:1003260004F0EB640E4A7039C3900009E09404901F
:100336000008E09400502A900002E0FEA3E0FF7C53
:10034600007D0A120F90EF2402FFE43E900002F0B7
:10035600A3EFF0900009E004F07006900008E004B6
:10036600F0E964127039C3900009E0940490000823
:10037600E09400502A900002E0FEA3E0FF7C007D9E
:100386000A120F90EF2403FFE43E900002F0A3EF61
:10039600F0900009E004F07006900008E004F0E92F
:1003A600FB7A0064097039C3900009E09404900058
:1003B60008E09400502A900002E0FEA3E0FF7C00D3
:1003C6007D0A120F90EF2404FFE43E900002F0A392
:1003D600EFF0900009E004F07006900008E004F0E9
:1003E600EB640D4A7039C3900009E094049000084C
:1003F600E09400502A900002E0FEA3E0FF7C007D1E
:100406000A120F90EF2405FFE43E900002F0A3EFDE
:10041600F0900009E004F07006900008E004F0E9AE
:1004260064117039C3900009E09404900008E094C8
:1004360000502A900002E0FEA3E0FF7C007D0A1235
:100446000F90EF2406FFE43E900002F0A3EFF09039
:100456000009E004F07006900008E004F0E9FB7A79
:100466000064087039C3900009E09404900008E025
:100476009400502A900002E0FEA3E0FF7C007D0A73
:10048600120F90EF2407FFE43E900002F0A3EFF076
:10049600900009E004F07006900008E004F0EB64B8
:1004A6000C4A7039C3900009E09404900008E09467
:1004B60000502A900002E0FEA3E0FF7C007D0A12B5
:1004C6000F90EF2408FFE43E900002F0A3EFF090B7
:1004D6000009E004F07006900008E004F0E96410FA
:1004E6007039C3900009E09404900008E09400502D
:1004F6002A900002E0FEA3E0FF7C007D0A120F9026
:10050600EF2409FFE43E900002F0A3EFF09000090B
:10051600E004F07006900008E004F0900000E0753A
:10052600F008A4245DF582E5F03400AF82F5098F6A
:100536000A9000BDE0FF75F00A8490005DF0EF754B
:10054600F00A84A3E5F0F09000BEE0FF75F00A849F
:10055600900060F0EF75F00A84A3E5F0F09000BF1C
:10056600E0FF75F00A84900063F0EF75F00A84A34B
:10057600E5F0F0900002E0FEA3E0FFC394E8EE94FD
:100586000340127C037DE8120FA27C007D0A120F45
:10059600A2AF0580027F10900069EFF0900002E0A4
:1005A600FEA3E0FFC39464EE940040127C007D64D9
:1005B600120FA27C007D0A120FA2AF0580027F10E7
:1005C60090006AEFF0900002E0FEA3E0FFC3940AF9
:1005D600EE940040127C007D0A120FA27C007D0A78
:1005E600120FA2AF0580027F1090006BEFF0900013
:1005F60002E0FEA3E0FFD39400EE9400400B7C00E3
:100606007D0A120FA2AF0580027F1090006CEFF0FA
:1006160090000DE0FF75F00A84900070F0EF75F021
:100626000A84A3E5F0F090000EE0FF75F00A8490CE
:100636000073F0EF75F00A84A3E5F0F0900012E085
:10064600FEA3E0FFC394E8EE940340127C037DE82A
:10065600120FA27C007D0A120FA2AF0580027F1046
:10066600900079EFF0900012E0FEA3E0FFC39464DF
:10067600EE940040127C007D64120FA27C007D0A7D
:10068600120FA2AF0580027F1090007AEFF0900063
:1006960012E0FEA3E0FFC3940AEE940040127C0031
:1006A6007D0A120FA27C007D0A120FA2AF058002FE
:1006B6007F1090007BEFF0900012E0FEA3E0FF7C3D
:1006C600007D0A120FA290007CEDF0900014E0FE6F
:1006D600A3E0FFC394E8EE940340127C037DE81286
:1006E6000FA27C007D0A120FA2AF0580027F109038
:1006F6000081EFF0900014E0FEA3E0FFC39464EEE7
:10070600940040147C007D64120FA27C007D0A12C6
:100716000FA2ED2420FF80027F10900082EFF09060
:100726000014E0FEA3E0FFC3940AEE940040127C9E
:10073600007D0A120FA27C007D0A120FA2AF05806F
:10074600027F10900083EFF0900014E0FEA3E0FF1C
:100756007C007D0A120FA2900084EDF0900057E015
:10076600FEA3E0FFC39410EE942740127C277D1071
:10077600120FA27C007D0A120FA2AF0580027F1025
:10078600900088EFF0900057E0FEA3E0FFC394E8E6
:10079600EE940340127C037DE8120FA27C007D0AD2
:1007A600120FA2AF0580027F10900089EFF0900033
:1007B60057E0FEA3E0FFC39464EE940040127C0071
:1007C6007D64120FA27C007D0A120FA2AF05800283
:1007D6007F1090008AEFF0900057E0FEA3E0FFC381
:1007E600940AEE940040127C007D0A120FA27C004F
:1007F6007D0A120FA2AF0580027F1090008BEFF0EA
:10080600900057E0FEA3E0FF7C007D0A120FA29045
:10081600008CEDF090001CE0FAA3E0FB7C007D6408
:10082600FFAE02120FA27C007D0A120FA2ED242059
:1008360090008EF07C007D0AAF03AE02120FA27C00
:10084600007D0A120FA2A3EDF090001CE0FEA3E0CB
:10085600FF7C007D0A120FA2900090EDF090002020
:10086600E0FAA3E0FB7C007D64FFAE02120FA27CDF
:10087600007D0A120FA2ED2420900092F07C007DEC
:100886000AAF03AE02120FA27C007D0A120FA2A3CA
:10089600EDF0900020E0FEA3E0FF7C007D0A120F41
:1008A600A2900094EDF090001AE0FAA3E0FB7C0021
:1008B6007D64FFAE02120FA27C007D0A120FA2ED2C
:1008C600242090009AF07C007D0AAF03AE02120F3E
:1008D600A27C007D0A120FA2A3EDF090001AE0FEA2
:1008E600A3E0FF7C007D0A120FA290009CEDF09021
:1008F6000000E0FF7E007005430C018003530CFEF0
:10090600EF64014E7005430C028003530CFDEF6447
:10091600024E7005430C048003530CFB900006E066
:10092600FEA3E0FFD3900005E09F900004E09E4008
:0D09360006430C080200AD530CF70200ADA3
:041E11007F057E00CB
:101E1500EF1FAA0670011E4A600FE4FDEDC3940C86
:091E25007480948050EA0D80F3F2
:011E2E002291
:021D6E00A907C3
:101D7000E4FBEBC39408748094805016C2AFC29405
:101D8000E9139294121E11D294E9C313F9D2AF0B46
:091D900080E07F057E00021E15B3
:101D4000E4FBEBC3940874809480501FC2AFC2942C
:101D5000ECC313FCD2947F017E00121E1530940355
:0D1D6000430480121E11D2AF0B80D7AF04D8
:011D6D002253
:101D9900C200D2947F0C7E00121E15C2947F507E21
:101DA90000121E15D294C2AF7F0A7E00121E15A220
:0A1DB900949200D2AF121E11A20096
:011DC30022FD
:101AE200E4FFFEF522F523FDFC121D997FCC121DA9
:101AF2006E7F44121D6E121D997FCC121D6E7FBE29
:101B0200121D6E121D407522008F23121D40EF45DB
:101B120022FCE523FDE4120A4EE4FBFA79C8784080
:061B2200120943020A87CC
:10187200C1095800A40000000000000000000000A0
:10188200000000000000000000000000004100BC59
:05189200004100A3006D
:101EEB00759850438E01438E0475D7C775D6FE4344
:071EFB008E10D2ACD2AF2221
:081F96002009FD8F99D20922F8
:101F5300120F38FF600C121F96740129F9E43AFA44
:031F630080EE22EB
:030023000219249B
:10192400C0E0C083C082C0D075D000C00730990425
:10193400C299C20930986AC2989000BCE0FF24A4FE
:10194400F582E43400F583E599F074A32FF582E47D
:101954003400F583E0B40D2D9000BCE024A4F5829E
:10196400E43400F583E0B40A1C9000A37401F09001
:1019740000BCE004F0E024A4F582E43400F583E440
:10198400F09000BCF09000BCE004F0C394187480A4
:101994009480400D9000A4E4F09000A3F09000BC6B
:0C19A400F0D007D0D0D082D083D0E03249
:10094300EC4D6011E8497017ED33EC3304600DE4AE
:10095300FCFFFEFD22E933E8330470F8020AF312C8
:100963000ABE58046009E4CC2481500628500902C9
:100973000AFD284003020AFAC0E0EB4A7044B9803A
:1009830006D0E0FB020AE9EF4E701CBD8008EBFFC6
:10099300EAFEE9FD80EBE98DF0A4FEE5F0020A2C06
:1009A300E9CDF9EAFEEBFFEF89F0A4FCE5F0CE898F
:1009B300F0A42EFFE435F0CD89F0A42DFEE435F04C
:1009C3008067EF4E7005BD80D780C3EF8BF0A4AC7A
:1009D300F0EE8BF0A42CFCE435F0F8EF8AF0A42CB5
:1009E300E5F038FCE433CB8DF0A42CFCE5F03BF8C8
:1009F300EE8AF0A42CFCE5F038F8E433CF89F0A4B8
:100A03002CFCE5F038CF3400CE89F0A42FFFE5F0BD
:100A13003EFEE433C98DF0A42EFEE5F039CD8AF015
:100A2300A42FFFE5F03EFEE43DFD33D0E0FB50078D
:100A33000BBB000F020AFDEC2CFCEF33FFEE33FE81
:060A4300ED33FD020AD5AF
:100A490075F020800E75F010800575F0087D007E28
:100A5900007F003392D530D50312100DEC334010CE
:100A6900EF33FFEE33FEED33FDEC33FCD5F0ED2231
:0E0A7900E5F0247EA2D513CC92E7CDCEFF226D
:100A8700EDD2E7CD33EC3392D524814006E4FFFE67
:100A9700FDFC22FCE4CFCECDCC24E0501174FF80C6
:100AA700EDC3CC13CCCD13CDCE13CECF13CF047063
:070AB700F030D5DE02100D46
:1011EC00E5392425F8E605392278223007027825DE
:1011FC00E475F00112101B020F382000EB7F2ED289
:10120C00008018EF540F2490D43440D4FF30040BDA
:10121C00EF24BFB41A0050032461FFE53A600215B5
:10122C003A053DE53D7002053C30070D7822E4752A
:10123C00F00112101BEF020F7E021DC47403D207C3
:10124C008003E4C207F5398B228A238924E4F53A1A
:10125C00F53CF53DE53A60077F2012122780F575C5
:10126C003BFFC201C200C202C203C205C206C208D1
:10127C001211F5FF700D3007057F00121238AF3DCB
:10128C00AE3C22B4255FC2D5C2041211F5FF24D0A6
:10129C00B40A00501A75F00A783A30D50508B6FF32
:1012AC000106C6A426F620D5047002D20380D924E8
:1012BC00CFB41A00EF5004C2E5D204021525D201B6
:1012CC0080C6D20080C0D20280BCD2D580BAD205F2
:1012DC0080B47F201212272002077401B53A004017
:1012EC00F11211ECFF121227021260D208D2068002
:1012FC00951211ECFB1211ECFA1211ECF94A4B702D
:10130C0006791C7A167BFF20022EE53A602A7E00B5
:10131C008E82758300120F5160060EEE653B70F0E5
:10132C00C2D5EBC0E0EAC0E0E9C0E0EE121585D012
:10133C00E0F9D0E0FAD0E0FB120F38FF60AAEBC066
:10134C00E0EAC0E0E9C0E0121227D0E02401F9D0B5
:10135C00E03400FAD0E0FBE53B0460DCD53BD980FF
:10136C0087D20280A212156860F7E53B7001041267
:10137C000B08A93B600DE53B600914F53B12160FF9
:10138C00EF60F3EA30E702F404C3995077EAF425EE
:10139C003B0430E701E404F53B800D12156860C195
:1013AC00EA053B253B120B08EA7838F630E701E4F6
:1013BC00253B04D53B0420050114121585E4C0E03F
:1013CC0012160F7838E6601320E70714F612120F86
:1013DC00802204F6D0E014C0E07F0012120FE53B2F
:1013EC006007121206153B800B300503121206D053
:1013FC00E0021260D0E00480C512156860A0E53BE5
:10140C0004120B087838EAF6E53B2005026001046B
:05141C002404121585F7
:1014210074FF04C0E012160F12120FE53B200502F3
:101431006003121206D0E0B53BE87F45121219781D
:1014410038E67F2B30E7047F2DF404C0E012122729
:10145100D0E075F00A84C0F0121210D0E012121020
:10146100021260791080027908C206C2088008D28F
:10147100D5790A8004790AC2D5E53B047002F53BAF
:10148100E4FAFDFEFF1211ECFC7B0820011312119E
:10149100ECFD7B1030000A1211ECFE1211ECFF7B07
:1014A10020EC3382D592D55013C3E43000069FFF60
:1014B100E49EFEE42001039DFDE49CFCE4CBF8C224
:1014C10001EC700CCFCECDCCE824F8F870F3801786
:1014D100C3EF33FFEE33FEED33FDEC33FCEB33FBB7
:1014E100994002FB0FD8E9EB300105F8D0E0C44880
:1014F100B201C0E00AEC4D4E4F78207B0070C2EA89
:10150100B53B0040BCC0E0121587D0F0D0E020010F
:1015110004C4C0E0C4B201C0F0121210D0F0D5F082
:10152100EB02126012102B12FD5314645812CE4CB0
:1015310012CA4214684F14704414704912E34314E0
:10154100765513A746140545137147163C5012D220
:101551002D12D62E12F92B12DA2312F72016252A74
:10156100129248000012F1E53BB4FF03753B0612ED
:1015710011ECFC1211ECFD1211ECFE1211ECFF78D2
:1015810031020B37790AA2D5200314300509B910AD
:10159100020404B9080104A2D52006025001042066
:1015A10002689202B53A005034C0E07F203003193E
:1015B1007F30A20272067205500F1215DEC202C2FE
:1015C10006C205C2087F30800F300503E9C0E01272
:1015D1001227300503D0E0F9D0E0B53ACC30051739
:1015E1007F30B9100C1212277F583004077F7880A2
:1015F10003B908031212273002057F2D0212277F3B
:10160100202008F87F2B2006F322920280CF7F0052
:10161100B4070050052431F8E6FF22286E756C6C82
:101621002900D2011211EC3001F8C201783A30D50B
:101631000108F60212922D504349581211EC24036D
:10164100B405004001E490163793121218743A124F
:0A1651001218D203753A0402146463
:100ABE00E9D2E7C933E833F892D5EDD2E7CD33EC7E
:070ACE0033FC5002B2D522F7
:100AD500EC30E7100FBF000C0EBE00080DBD000482
:100AE5000BEB6014A2D5EB13FCED92E7FD2274FF2E
:100AF500FCFDFEFF22E480F8A2D574FF13FC7D8087
:030B0500E480EF9A
:100B0800F920E72824F950037907E4F42402FB18B4
:100B1800DBFDE624FB5014E9600DE4F618E604F664
:0F0B2800B40A08E4F6D9F57401F60A22C2D52200
:100B3700ED33EC3392D5FA602AB4FF33EDC2E77B8D
:100B4700FF60067A0B795CE4227A0B796520D5047D
:100B57007A0B7960224E614E002B494E46002D4993
:100B67004E4600E47A08F608DAFC7B00740722E8B0
:100B7700C0E0ECC0E0EDC0E0EEC0E0EFC0E0EA7539
:100B8700F010A4CAABF075F04DA42BFBE435F0FCD4
:100B9700EA2410FAEB34C5FBEC34D9FCEDC2E7FFCD
:100BA70075F056A4F42411C5F0F434C58FF0A42AC7
:100BB700E5F03BE43CF620E714120E02D0E0FFD04C
:100BC700E0FED0E0FDD0E0FC120D358014F40412F5
:100BD7000E02D0E0FFD0E0FED0E0FDD0E0FC12092D
:100BE70043D0E0F8E6FAEDD2E7CD33EC332482FBCD
:100BF700E4C3CF33CFCE33CECD33CD33DBF37B0757
:100C070075F00A846004F6081B0AE5F0F6088FF011
:100C1700740AA4FFACF08EF0740AA42CFEACF0505A
:100C2700010C8DF0740AA42CFDE435F0F608DBDE28
:030C37007407221D
:100C3A00020AF3E86480F8E933E83360110460F0EB
:100C4A00ED33EC337009E8FCE9FDEAFEEBFF220420
:100C5A0060DED3EB9FEA9EE99DE8C2E78CF0C2F71B
:100C6A0095F0400CE8CCF8E9CDF9EACEFAEBCFFBE7
:100C7A00120ABE85D0F05804700320D5B3E8047078
:100C8A00075002B2D5020AFD92D5EC0460F7E4CC13
:100C9A00C0E0C398F8603B94186008400DD0E0FBB0
:100CAA00020AD5E4FBFAC9FC8028E830E406E4C964
:100CBA00FBE4CAFCE830E305E4C9CACBFCE8540704
:100CCA006010F8C3E913F9EA13FAEB13FBEC13FC0F
:100CDA00D8F130F52FC3E49CFCEF9BFFEE9AFEEDB2
:100CEA0099FDD0E0FBEF4E4D4C701222DB03020A55
:100CFA00FAEC2CFCEF33FFEE33FEED33FDED30E77B
:100D0A00EB020AD5EF2BFFEE3AFEED39FDD0E0FB00
:100D1A0050130BBB0003020AFDED13FDEE13FEEFA9
:080D2A0013FFEC13FC020AD5D3
:100D3200020AFDEC5D046005E859047003020AF33F
:100D4200120ABE580460F6EC4860F2EC7004FDFE34
:100D5200FF22C860DB2481C85009C3986002500694
:100D6200020AFA9850CAF582E9294B4A7005AB8209
:100D7200020AE975F0007C1A7880C3EF9BEE9AEDC7
:100D820099400DC3EF9BFFEE9AFEED99FDE842F00C
:100D9200DC23ACF0D0E0FFD0E0FED0E0FDAB82205F
:100DA200E7101BEB60BAEC2CFCEF33FFEE33FEEDE9
:100DB20033FD020AD5E803F830E705C0F075F0000C
:100DC200EF2FFFEE33FEED33FD40B830E7C280AACD
:100DD2003F8000004120000042C80000447A000029
:100DE200461C400047C35000497424004B189680AB
:100DF2004CBEBC205A0E1BCA6753C21C749DC5AEA2
:100E0200FB60065407601C2323120E30EB5438603B
:100E120009120E1C120E2B120943ECF8EDF9EEFA30
:100E2200EFCB22EB120E2B80F1543803241C900DD1
:100E3200D2FE93FC0EEE93FD0EEE930ECE93FF22A6
:1018A400020026E493A3F8E493A34003F68001F234
:1018B40008DFF48029E493A3F85407240CC8C33345
:1018C400C4540F4420C8834004F456800146F6DF14
:1018D400E4800B01020408102040809017E2E47EAB
:1018E400019360BCA3FF543F30E509541FFEE49309
:1018F400A360010ECF54C025E060A840B8E493A3D0
:10190400FAE493A3F8E493A3C8C582C8CAC583CAFA
:10191400F0A3C8C582C8CAC583CADFE9DEE780BEB2
:011897000050
:100E4200E709F608DFFA8046E709F208DFFA803E92
:100E520088828C83E709F0A3DFFA8032E309F6087F
:100E6200DFFA8078E309F208DFFA807088828C83E7
:100E7200E309F0A3DFFA806489828A83E0A3F6089B
:100E8200DFFA805889828A83E0A3F208DFFA804C75
:100E920080D280FA80C680D4806980F2803380104C
:100EA20080A680EA809A80A880DA80E280CA8033B5
:100EB20089828A83ECFAE493A3C8C582C8CCC5832D
:100EC200CCF0A3C8C582C8CCC583CCDFE9DEE780FD
:100ED2000D89828A83E493A3F608DFF9ECFAA9F07C
:100EE200EDFB2289828A83ECFAE0A3C8C582C8CCD2
:100EF200C583CCF0A3C8C582C8CCC583CCDFEADEEB
:100F0200E880DB89828A83E493A3F208DFF980CC4C
:100F120088F0EF60010E4E60C388F0ED2402B40445
:100F22000050B9F582EB2402B4040050AF232345EC
:060F32008223900E927371
:100F3800BB010689828A83E0225002E722BBFE02B7
:090F4800E32289828A83E49322EA
:100F5100BB010CE58229F582E5833AF583E0225055
:100F610006E92582F8E622BBFE06E92582F8E2229F
:0D0F7100E58229F582E5833AF583E49322B9
:100F7E00BB010689828A83F0225002F722BBFE0152
:020F8E00F3224C
:100F9000EF8DF0A4A8F0CF8CF0A428CE8DF0A42E75
:020FA000FE222F
:100FA200BC000BBE0029EF8DF084FFADF022E4CC33
:100FB200F875F008EF2FFFEE33FEEC33FCEE9DECFC
:100FC200984005FCEE9DFE0FD5F0E9E4CEFD22ED42
:100FD200F8F5F0EE8420D21CFEADF075F008EF2F8C
:100FE200FFED33FD4007985006D5F0F222C398FD7D
:050FF2000FD5F0EA221A
:100FF700C5F0F8A3E028F0C5F0F8E5821582700285
:061007001583E038F02221
:0E100D00C3E49FFFE49EFEE49DFDE49CFC22F4
:10101B00FAE6FB0808E6F925F0F618E6CA3AF622D6
:10102B00D083D082F8E4937012740193700DA3A354
:10103B0093F8740193F5828883E473740293686068
:06104B00EFA3A3A380DF68
:101DC400EFB40A07740D121DCF740A309811A89944
:101DD400B8130CC2983098FDA899C298B811F6307F
:071DE40099FDC299F5992257
:10105100E3F5F009E208B5F06D606B80F3E3F5F0BC
:1010610009E608B5F060605E80F387F009E608B52F
:10107100F054605280F487F009E208B5F048604608
:1010810080F488828C8387F009E0A3B5F03860365C
:1010910080F488828C8387F009E493A3B5F02760FC
:1010A1002580F388828C83E3F5F009E0A3B5F0167F
:1010B100601480F388828C83E3F5F009E493A3B58F
:1010C100F004600280F202117C808580E7808E80CE
:1010D100D2803C8015806C807E809B80B5808B8027
:1010E100A1804F8070803A02118889828A83ECFA4C
:1010F100E493F5F0A3C8C582C8CCC583CCE493A31F
:10110100C8C582C8CCC583CCB5F070606E80E1895A
:10111100828A83E493F5F0A3E208B5F05E605C8017
:10112100F289828A83E0F5F0A3E608B5F04D604BC1
:1011310080F389828A83E0F5F0A3E208B5F03C6090
:101141003A80F389828A83E493F5F0A3E608B5F047
:101151002A602880F2805389828A83ECFAE493F52D
:10116100F0A3C8C582C8CCC583CCE0A3C8C582C8DA
:10117100CCC583CCB5F004600280E27FFFB5F002FC
:101181000F2240027F012289828A83ECFAE0F5F086
:10119100A3C8C582C8CCC583CCE0A3C8C582C8CCCE
:1011A100C583CCB5F0D560D380E389828A83ECFA1C
:1011B100E0F5F0A3C8C582C8CCC583CCE493A3C82D
:1011C100C582C8CCC583CCB5F0B160AF80E288F0F0
:1011D100ED2402B4040050A3F582EB2402B4040010
:0B11E100509923234582239010CA730D
:00000001FF
